{
  "contractName": "CreditRecord",
  "abi": [
    {
      "anonymous": false,
      "inputs": [
        {
          "indexed": true,
          "internalType": "uint256",
          "name": "creditCardId",
          "type": "uint256"
        },
        {
          "indexed": false,
          "internalType": "int256",
          "name": "amount",
          "type": "int256"
        },
        {
          "indexed": false,
          "internalType": "uint256",
          "name": "timestamp",
          "type": "uint256"
        }
      ],
      "name": "CreditCreated",
      "type": "event"
    },
    {
      "anonymous": false,
      "inputs": [
        {
          "indexed": true,
          "internalType": "uint256",
          "name": "creditId",
          "type": "uint256"
        },
        {
          "indexed": false,
          "internalType": "uint256",
          "name": "timestamp",
          "type": "uint256"
        }
      ],
      "name": "CreditRepaid",
      "type": "event"
    },
    {
      "inputs": [
        {
          "internalType": "uint256",
          "name": "",
          "type": "uint256"
        }
      ],
      "name": "credits",
      "outputs": [
        {
          "internalType": "uint256",
          "name": "creditCardId",
          "type": "uint256"
        },
        {
          "internalType": "int256",
          "name": "amount",
          "type": "int256"
        },
        {
          "internalType": "uint256",
          "name": "timestamp",
          "type": "uint256"
        },
        {
          "internalType": "bool",
          "name": "isRepaid",
          "type": "bool"
        }
      ],
      "stateMutability": "view",
      "type": "function",
      "constant": true
    },
    {
      "inputs": [
        {
          "internalType": "uint256",
          "name": "creditCardId",
          "type": "uint256"
        },
        {
          "internalType": "int256",
          "name": "amountInYuan",
          "type": "int256"
        }
      ],
      "name": "createCredit",
      "outputs": [
        {
          "internalType": "uint256",
          "name": "",
          "type": "uint256"
        }
      ],
      "stateMutability": "nonpayable",
      "type": "function"
    },
    {
      "inputs": [
        {
          "internalType": "uint256",
          "name": "creditCardId",
          "type": "uint256"
        }
      ],
      "name": "getCardCreditDetails",
      "outputs": [
        {
          "internalType": "uint256[]",
          "name": "creditIds",
          "type": "uint256[]"
        },
        {
          "internalType": "int256[]",
          "name": "amounts",
          "type": "int256[]"
        },
        {
          "internalType": "uint256[]",
          "name": "timestamps",
          "type": "uint256[]"
        },
        {
          "internalType": "bool[]",
          "name": "repaidStates",
          "type": "bool[]"
        }
      ],
      "stateMutability": "view",
      "type": "function",
      "constant": true
    }
  ],
  "bytecode": "0x608060405234801561001057600080fd5b506109fe806100206000396000f3fe608060405234801561001057600080fd5b50600436106100415760003560e01c8063036a1c22146100465780635913dd6c1461007257806379e379dc14610092575b600080fd5b6100596100543660046106f2565b6100b5565b60405161006994939291906108a7565b60405180910390f35b61008561008036600461070a565b6100f2565b604051610069919061089e565b6100a56100a03660046106f2565b610429565b60405161006994939291906107ba565b600081815481106100c557600080fd5b60009182526020909120600490910201805460018201546002830154600390930154919350919060ff1684565b60408051600280825260608201909252600091829190816020015b606081526020019060019003908161010d579050509050600061012f856106b3565b6010146101a6576040518060400160405280601e81526020017fe8afb7e8be93e585a5e69c89e69588e79a84e993b6e8a18ce58da1e58fb7000081525082828151811061018c57634e487b7160e01b600052603260045260246000fd5b602002602001018190525080806101a290610997565b9150505b6000841361021457604051806040016040528060138152602001720e98791e9a29de5bf85e9a1bbe5a4a7e4ba8e3606c1b8152508282815181106101fa57634e487b7160e01b600052603260045260246000fd5b6020026020010181905250808061021090610997565b9150505b80156102de57604080516020810190915260008082525b828110156102ba57801561025c578160405160200161024a9190610794565b60405160208183030381529060405291505b8184828151811061027d57634e487b7160e01b600052603260045260246000fd5b6020026020010151604051602001610296929190610765565b604051602081830303815290604052915080806102b290610997565b91505061022b565b508060405162461bcd60e51b81526004016102d5919061086b565b60405180910390fd5b60006102eb8560646108e4565b60008054604080516080810182528a81526020808201868152428385018181526060850188815260018089018a5589805295517f290decd9548b62a8d60345a988386fc84ba6bc95484008f6362f93160ef3e56360048a029081019190915593517f290decd9548b62a8d60345a988386fc84ba6bc95484008f6362f93160ef3e56485015590517f290decd9548b62a8d60345a988386fc84ba6bc95484008f6362f93160ef3e565840155517f290decd9548b62a8d60345a988386fc84ba6bc95484008f6362f93160ef3e566909201805460ff1916921515929092179091558c8652828252838620805493840181558652942001829055519293509188917f58f0c75c18e2f6486a0d81f1efca6b697e77b7b62c32df8b08a935667ef159e29161041791869161085d565b60405180910390a29695505050505050565b60608060608060006001600087815260200190815260200160002080548060200260200160405190810160405280929190818152602001828054801561048e57602002820191906000526020600020905b81548152602001906001019080831161047a575b50508351939450839250505067ffffffffffffffff8111156104c057634e487b7160e01b600052604160045260246000fd5b6040519080825280602002602001820160405280156104e9578160200160208202803683370190505b5094508067ffffffffffffffff81111561051357634e487b7160e01b600052604160045260246000fd5b60405190808252806020026020018201604052801561053c578160200160208202803683370190505b5093508067ffffffffffffffff81111561056657634e487b7160e01b600052604160045260246000fd5b60405190808252806020026020018201604052801561058f578160200160208202803683370190505b50925060005b818110156106a7576000808483815181106105c057634e487b7160e01b600052603260045260246000fd5b6020026020010151815481106105e657634e487b7160e01b600052603260045260246000fd5b90600052602060002090600402019050806001015487838151811061061b57634e487b7160e01b600052603260045260246000fd5b602002602001018181525050806002015486838151811061064c57634e487b7160e01b600052603260045260246000fd5b60209081029190910101526003810154855160ff9091169086908490811061068457634e487b7160e01b600052603260045260246000fd5b91151560209283029190910190910152508061069f81610997565b915050610595565b50909450509193509193565b6000816106c2575060016106ed565b60005b82156106ea576106d6600a846108c4565b9250806106e281610997565b9150506106c5565b90505b919050565b600060208284031215610703578081fd5b5035919050565b6000806040838503121561071c578081fd5b50508035926020909101359150565b6000815180845260208085019450808401835b8381101561075a5781518752958201959082019060010161073e565b509495945050505050565b60008351610777818460208801610967565b83519083019061078b818360208801610967565b01949350505050565b600082516107a6818460208701610967565b6101d960f51b920191825250600201919050565b6000608082526107cd608083018761072b565b828103602084810191909152865180835287820192820190845b81811015610803578451835293830193918301916001016107e7565b50508481036040860152610817818861072b565b8581036060870152865180825283880194509083019150845b8181101561084e578451151583529383019391830191600101610830565b50909998505050505050505050565b918252602082015260400190565b600060208252825180602084015261088a816040850160208701610967565b601f01601f19169190910160400192915050565b90815260200190565b938452602084019290925260408301521515606082015260800190565b6000826108df57634e487b7160e01b81526012600452602481fd5b500490565b60006001600160ff1b038184138284138082168684048611161561090a5761090a6109b2565b600160ff1b84871282811687830589121615610928576109286109b2565b858712925087820587128484161615610943576109436109b2565b87850587128184161615610959576109596109b2565b505050929093029392505050565b60005b8381101561098257818101518382015260200161096a565b83811115610991576000848401525b50505050565b60006000198214156109ab576109ab6109b2565b5060010190565b634e487b7160e01b600052601160045260246000fdfea264697066735822122084eb0039ee7972afe4f447f4d1bac7f8d0649bb655d49870b35feda7bd4eeb5c64736f6c63430008000033",
  "immutableReferences": {},
  "source": "// SPDX-License-Identifier: MIT\r\npragma solidity ^0.8.0;\r\n\r\nlibrary StringUtils {\r\n    function numLength(uint256 number) internal pure returns (uint256) {\r\n        if (number == 0) return 1;\r\n        \r\n        uint256 length = 0;\r\n        while (number != 0) {\r\n            number /= 10;\r\n            length++;\r\n        }\r\n        return length;\r\n    }\r\n}\r\n\r\ncontract CreditRecord {\r\n    using StringUtils for uint256;\r\n\r\n    // \r\n    struct Credit {\r\n        uint256 creditCardId; // \r\n        int256 amount;       // \r\n        uint256 timestamp;    // \r\n        bool isRepaid;       // \r\n    }\r\n\r\n    // \r\n    Credit[] public credits;\r\n    \r\n    // ID\r\n    mapping(uint256 => uint256[]) private creditCardCredits;\r\n    \r\n    // \r\n    event CreditCreated(\r\n        uint256 indexed creditCardId,\r\n        int256 amount,\r\n        uint256 timestamp\r\n    );\r\n    \r\n    event CreditRepaid(uint256 indexed creditId, uint256 timestamp);\r\n\r\n    // 1\r\n    function createCredit(\r\n        uint256 creditCardId,\r\n        int256 amountInYuan  // \r\n    ) public returns (uint256) {\r\n        // \r\n        string[] memory errorMessages = new string[](2);\r\n        uint256 errorCount = 0;\r\n\r\n        // \r\n        if (creditCardId.numLength() != 16) {\r\n            errorMessages[errorCount] = unicode\"\";\r\n            errorCount++;\r\n        }\r\n        if (amountInYuan <= 0) {\r\n            errorMessages[errorCount] = unicode\"0\";\r\n            errorCount++;\r\n        }\r\n        \r\n        // \r\n        if (errorCount > 0) {\r\n            string memory allErrors = \"\";\r\n            for (uint256 i = 0; i < errorCount; i++) {\r\n                if (i > 0) {\r\n                    allErrors = string(abi.encodePacked(allErrors, \"; \"));\r\n                }\r\n                allErrors = string(abi.encodePacked(allErrors, errorMessages[i]));\r\n            }\r\n            revert(allErrors);\r\n        }\r\n        \r\n        int256 amountInFen = amountInYuan * 100;  // \r\n        \r\n        uint256 creditId = credits.length;\r\n        credits.push(Credit({\r\n            creditCardId: creditCardId,\r\n            amount: amountInFen,\r\n            timestamp: block.timestamp,\r\n            isRepaid: false\r\n        }));\r\n        \r\n        // \r\n        creditCardCredits[creditCardId].push(creditId);\r\n        \r\n        emit CreditCreated(\r\n            creditCardId,\r\n            amountInFen,\r\n            block.timestamp\r\n        );\r\n        \r\n        return creditId;\r\n    }\r\n    \r\n    // 2\r\n    // function getCreditsByCard(uint256 creditCardId) public view returns (uint256[] memory) {\r\n    //     return creditCardCredits[creditCardId];\r\n    // }\r\n    \r\n    // 3\r\n    // function getCreditDetails(uint256 creditId) public view returns (\r\n    //     uint256 creditCardId,\r\n    //     int256 amount,\r\n    //     uint256 timestamp,\r\n    //     bool isRepaid\r\n    // ) {\r\n    //     require(creditId < credits.length, unicode\"\");//?\r\n    //     Credit storage credit = credits[creditId];\r\n    //     return (\r\n    //         credit.creditCardId,\r\n    //         credit.amount,\r\n    //         credit.timestamp,\r\n    //         credit.isRepaid\r\n    //     );\r\n    // }\r\n    \r\n    // 2\r\n    function getCardCreditDetails(uint256 creditCardId) public view returns (\r\n        uint256[] memory creditIds,\r\n        int256[] memory amounts,\r\n        uint256[] memory timestamps,\r\n        bool[] memory repaidStates\r\n    ) {\r\n        uint256[] memory ids = creditCardCredits[creditCardId];\r\n        uint256 length = ids.length;\r\n        \r\n        amounts = new int256[](length);\r\n        timestamps = new uint256[](length);\r\n        repaidStates = new bool[](length);\r\n        \r\n        for (uint256 i = 0; i < length; i++) {\r\n            Credit storage credit = credits[ids[i]];\r\n            amounts[i] = credit.amount;\r\n            timestamps[i] = credit.timestamp;\r\n            repaidStates[i] = credit.isRepaid;\r\n        }\r\n        \r\n        return (ids, amounts, timestamps, repaidStates);\r\n    }\r\n} ",
  "sourcePath": "F:\\Github Desktop\\huaQiProject\\contracts\\CreditRecord.sol",
  "compiler": {
    "name": "solc",
    "version": "0.8.0+commit.c7dfd78e.Emscripten.clang"
  },
  "schemaVersion": "3.4.16",
  "updatedAt": "2025-03-16T12:52:29.310Z",
  "networkType": "ethereum",
  "devdoc": {
    "kind": "dev",
    "methods": {},
    "version": 1
  },
  "userdoc": {
    "kind": "user",
    "methods": {},
    "version": 1
  }
}