{
  "contractName": "HelloWorld",
  "abi": [
    {
      "inputs": [
        {
          "internalType": "uint256",
          "name": "",
          "type": "uint256"
        }
      ],
      "name": "credits",
      "outputs": [
        {
          "internalType": "int256",
          "name": "amount",
          "type": "int256"
        },
        {
          "internalType": "uint256",
          "name": "timestamp",
          "type": "uint256"
        },
        {
          "internalType": "bool",
          "name": "isRepaid",
          "type": "bool"
        }
      ],
      "stateMutability": "view",
      "type": "function",
      "constant": true
    },
    {
      "inputs": [
        {
          "internalType": "int256",
          "name": "amountInYuan",
          "type": "int256"
        }
      ],
      "name": "createCredit",
      "outputs": [
        {
          "internalType": "uint256",
          "name": "",
          "type": "uint256"
        }
      ],
      "stateMutability": "nonpayable",
      "type": "function"
    }
  ],
  "bytecode": "0x608060405234801561001057600080fd5b506104ca806100206000396000f3fe608060405234801561001057600080fd5b50600436106100365760003560e01c8063036a1c221461003b578063a6172f6414610066575b600080fd5b61004e6100493660046102ef565b610086565b60405161005d9392919061035c565b60405180910390f35b6100796100743660046102ef565b6100bc565b60405161005d91906103a7565b6000818154811061009657600080fd5b600091825260209091206003909102018054600182015460029092015490925060ff1683565b60408051600280825260608201909252600091829190816020015b60608152602001906001900390816100d7579050509050600080841361015d57604051806040016040528060138152602001720e98791e9a29de5bf85e9a1bbe5a4a7e4ba8e3606c1b81525082828151811061014357634e487b7160e01b600052603260045260246000fd5b6020026020010181905250808061015990610463565b9150505b801561022757604080516020810190915260008082525b828110156102035780156101a557816040516020016101939190610336565b60405160208183030381529060405291505b818482815181106101c657634e487b7160e01b600052603260045260246000fd5b60200260200101516040516020016101df929190610307565b604051602081830303815290604052915080806101fb90610463565b915050610174565b508060405162461bcd60e51b815260040161021e9190610374565b60405180910390fd5b60006102348560646103b0565b6000805460408051606081018252938452426020850190815290840183815260018301845592805292517f290decd9548b62a8d60345a988386fc84ba6bc95484008f6362f93160ef3e563600383029081019190915592517f290decd9548b62a8d60345a988386fc84ba6bc95484008f6362f93160ef3e56484015590517f290decd9548b62a8d60345a988386fc84ba6bc95484008f6362f93160ef3e565909201805460ff19169215159290921790915595945050505050565b600060208284031215610300578081fd5b5035919050565b60008351610319818460208801610433565b83519083019061032d818360208801610433565b01949350505050565b60008251610348818460208701610433565b6101d960f51b920191825250600201919050565b92835260208301919091521515604082015260600190565b6000602082528251806020840152610393816040850160208701610433565b601f01601f19169190910160400192915050565b90815260200190565b60006001600160ff1b03818413828413808216868404861116156103d6576103d661047e565b600160ff1b848712828116878305891216156103f4576103f461047e565b85871292508782058712848416161561040f5761040f61047e565b878505871281841616156104255761042561047e565b505050929093029392505050565b60005b8381101561044e578181015183820152602001610436565b8381111561045d576000848401525b50505050565b60006000198214156104775761047761047e565b5060010190565b634e487b7160e01b600052601160045260246000fdfea2646970667358221220f502bcdf634deb2936ace633503e8cd610a8c1d194f0c45d6467c21ac7a663f764736f6c63430008000033",
  "immutableReferences": {},
  "source": "// SPDX-License-Identifier: MIT\r\npragma solidity ^0.8.0;\r\n\r\ncontract HelloWorld {\r\n    struct Credit {\r\n        int256 amount;       // \r\n        uint256 timestamp;    // \r\n        bool isRepaid;       // \r\n    }\r\n\r\n    Credit[] public credits;\r\n\r\n    function createCredit(\r\n        int256 amountInYuan  // \r\n    ) public returns (uint256) {\r\n        // \r\n        string[] memory errorMessages = new string[](2);\r\n        uint256 errorCount = 0;\r\n        if (amountInYuan <= 0) {\r\n            errorMessages[errorCount] = unicode\"0\";\r\n            errorCount++;\r\n        }\r\n        \r\n        // \r\n        if (errorCount > 0) {\r\n            string memory allErrors = \"\";\r\n            for (uint256 i = 0; i < errorCount; i++) {\r\n                if (i > 0) {\r\n                    allErrors = string(abi.encodePacked(allErrors, \"; \"));\r\n                }\r\n                allErrors = string(abi.encodePacked(allErrors, errorMessages[i]));\r\n            }\r\n            revert(allErrors);\r\n        }\r\n        \r\n        int256 amountInFen = amountInYuan * 100;  // \r\n        uint256 creditId = credits.length;\r\n        credits.push(Credit({\r\n            amount: amountInFen,\r\n            timestamp: block.timestamp,\r\n            isRepaid: false\r\n        }));\r\n        return creditId;\r\n    }}\r\n",
  "sourcePath": "F:\\Github Desktop\\huaQiProject\\contracts\\SimpleContract.sol",
  "compiler": {
    "name": "solc",
    "version": "0.8.0+commit.c7dfd78e.Emscripten.clang"
  },
  "schemaVersion": "3.4.16",
  "updatedAt": "2025-03-16T12:52:29.238Z",
  "networkType": "ethereum",
  "devdoc": {
    "kind": "dev",
    "methods": {},
    "version": 1
  },
  "userdoc": {
    "kind": "user",
    "methods": {},
    "version": 1
  }
}